{
  "contractName": "LocToken",
  "abi": [
    {
      "inputs": [
        {
          "internalType": "address",
          "name": "_private",
          "type": "address"
        },
        {
          "internalType": "address",
          "name": "_public",
          "type": "address"
        },
        {
          "internalType": "address",
          "name": "_investor1",
          "type": "address"
        },
        {
          "internalType": "address",
          "name": "_investor2",
          "type": "address"
        },
        {
          "internalType": "address",
          "name": "_friend",
          "type": "address"
        }
      ],
      "stateMutability": "nonpayable",
      "type": "constructor"
    },
    {
      "inputs": [
        {
          "internalType": "address",
          "name": "",
          "type": "address"
        },
        {
          "internalType": "address",
          "name": "",
          "type": "address"
        }
      ],
      "name": "allows",
      "outputs": [
        {
          "internalType": "uint256",
          "name": "",
          "type": "uint256"
        }
      ],
      "stateMutability": "view",
      "type": "function",
      "constant": true
    },
    {
      "inputs": [
        {
          "internalType": "address",
          "name": "",
          "type": "address"
        }
      ],
      "name": "balanceOf",
      "outputs": [
        {
          "internalType": "uint256",
          "name": "",
          "type": "uint256"
        }
      ],
      "stateMutability": "view",
      "type": "function",
      "constant": true
    },
    {
      "inputs": [],
      "name": "cost",
      "outputs": [
        {
          "internalType": "uint256",
          "name": "",
          "type": "uint256"
        }
      ],
      "stateMutability": "view",
      "type": "function",
      "constant": true
    },
    {
      "inputs": [],
      "name": "currentPhase",
      "outputs": [
        {
          "internalType": "enum LocToken.Phase",
          "name": "",
          "type": "uint8"
        }
      ],
      "stateMutability": "view",
      "type": "function",
      "constant": true
    },
    {
      "inputs": [],
      "name": "currentTokenOwner",
      "outputs": [
        {
          "internalType": "address",
          "name": "",
          "type": "address"
        }
      ],
      "stateMutability": "view",
      "type": "function",
      "constant": true
    },
    {
      "inputs": [],
      "name": "decimals",
      "outputs": [
        {
          "internalType": "uint8",
          "name": "",
          "type": "uint8"
        }
      ],
      "stateMutability": "view",
      "type": "function",
      "constant": true
    },
    {
      "inputs": [],
      "name": "name",
      "outputs": [
        {
          "internalType": "string",
          "name": "",
          "type": "string"
        }
      ],
      "stateMutability": "view",
      "type": "function",
      "constant": true
    },
    {
      "inputs": [],
      "name": "owner",
      "outputs": [
        {
          "internalType": "address",
          "name": "",
          "type": "address"
        }
      ],
      "stateMutability": "view",
      "type": "function",
      "constant": true
    },
    {
      "inputs": [],
      "name": "phaseTokenLimit",
      "outputs": [
        {
          "internalType": "uint256",
          "name": "",
          "type": "uint256"
        }
      ],
      "stateMutability": "view",
      "type": "function",
      "constant": true
    },
    {
      "inputs": [],
      "name": "privateProvider",
      "outputs": [
        {
          "internalType": "address",
          "name": "",
          "type": "address"
        }
      ],
      "stateMutability": "view",
      "type": "function",
      "constant": true
    },
    {
      "inputs": [
        {
          "internalType": "address",
          "name": "",
          "type": "address"
        }
      ],
      "name": "privateTokens",
      "outputs": [
        {
          "internalType": "uint256",
          "name": "",
          "type": "uint256"
        }
      ],
      "stateMutability": "view",
      "type": "function",
      "constant": true
    },
    {
      "inputs": [],
      "name": "publicProvider",
      "outputs": [
        {
          "internalType": "address",
          "name": "",
          "type": "address"
        }
      ],
      "stateMutability": "view",
      "type": "function",
      "constant": true
    },
    {
      "inputs": [
        {
          "internalType": "address",
          "name": "",
          "type": "address"
        }
      ],
      "name": "publicTokens",
      "outputs": [
        {
          "internalType": "uint256",
          "name": "",
          "type": "uint256"
        }
      ],
      "stateMutability": "view",
      "type": "function",
      "constant": true
    },
    {
      "inputs": [
        {
          "internalType": "uint256",
          "name": "",
          "type": "uint256"
        }
      ],
      "name": "requestAddresses",
      "outputs": [
        {
          "internalType": "address",
          "name": "",
          "type": "address"
        }
      ],
      "stateMutability": "view",
      "type": "function",
      "constant": true
    },
    {
      "inputs": [
        {
          "internalType": "address",
          "name": "",
          "type": "address"
        }
      ],
      "name": "requests",
      "outputs": [
        {
          "internalType": "string",
          "name": "",
          "type": "string"
        }
      ],
      "stateMutability": "view",
      "type": "function",
      "constant": true
    },
    {
      "inputs": [
        {
          "internalType": "address",
          "name": "",
          "type": "address"
        }
      ],
      "name": "seedTokens",
      "outputs": [
        {
          "internalType": "uint256",
          "name": "",
          "type": "uint256"
        }
      ],
      "stateMutability": "view",
      "type": "function",
      "constant": true
    },
    {
      "inputs": [],
      "name": "startTime",
      "outputs": [
        {
          "internalType": "uint256",
          "name": "",
          "type": "uint256"
        }
      ],
      "stateMutability": "view",
      "type": "function",
      "constant": true
    },
    {
      "inputs": [],
      "name": "symbol",
      "outputs": [
        {
          "internalType": "string",
          "name": "",
          "type": "string"
        }
      ],
      "stateMutability": "view",
      "type": "function",
      "constant": true
    },
    {
      "inputs": [],
      "name": "timeDiff",
      "outputs": [
        {
          "internalType": "uint256",
          "name": "",
          "type": "uint256"
        }
      ],
      "stateMutability": "view",
      "type": "function",
      "constant": true
    },
    {
      "inputs": [],
      "name": "total",
      "outputs": [
        {
          "internalType": "uint256",
          "name": "",
          "type": "uint256"
        }
      ],
      "stateMutability": "view",
      "type": "function",
      "constant": true
    },
    {
      "inputs": [
        {
          "internalType": "address",
          "name": "",
          "type": "address"
        }
      ],
      "name": "userRoles",
      "outputs": [
        {
          "internalType": "enum LocToken.Role",
          "name": "",
          "type": "uint8"
        }
      ],
      "stateMutability": "view",
      "type": "function",
      "constant": true
    },
    {
      "inputs": [
        {
          "internalType": "uint256",
          "name": "",
          "type": "uint256"
        }
      ],
      "name": "users",
      "outputs": [
        {
          "internalType": "address",
          "name": "",
          "type": "address"
        }
      ],
      "stateMutability": "view",
      "type": "function",
      "constant": true
    },
    {
      "inputs": [
        {
          "internalType": "address",
          "name": "",
          "type": "address"
        }
      ],
      "name": "whitelist",
      "outputs": [
        {
          "internalType": "bool",
          "name": "",
          "type": "bool"
        }
      ],
      "stateMutability": "view",
      "type": "function",
      "constant": true
    },
    {
      "inputs": [
        {
          "internalType": "address",
          "name": "addr",
          "type": "address"
        },
        {
          "internalType": "enum LocToken.Role",
          "name": "role",
          "type": "uint8"
        }
      ],
      "name": "addUser",
      "outputs": [],
      "stateMutability": "nonpayable",
      "type": "function"
    },
    {
      "inputs": [
        {
          "internalType": "uint256",
          "name": "amount",
          "type": "uint256"
        }
      ],
      "name": "changeCost",
      "outputs": [],
      "stateMutability": "nonpayable",
      "type": "function"
    },
    {
      "inputs": [
        {
          "internalType": "address",
          "name": "from",
          "type": "address"
        },
        {
          "internalType": "address",
          "name": "to",
          "type": "address"
        },
        {
          "internalType": "uint256",
          "name": "amount",
          "type": "uint256"
        }
      ],
      "name": "transferFrom",
      "outputs": [],
      "stateMutability": "nonpayable",
      "type": "function"
    },
    {
      "inputs": [
        {
          "internalType": "address",
          "name": "to",
          "type": "address"
        },
        {
          "internalType": "uint256",
          "name": "amount",
          "type": "uint256"
        }
      ],
      "name": "transfer",
      "outputs": [],
      "stateMutability": "nonpayable",
      "type": "function"
    },
    {
      "inputs": [
        {
          "internalType": "address",
          "name": "to",
          "type": "address"
        },
        {
          "internalType": "uint256",
          "name": "amount",
          "type": "uint256"
        }
      ],
      "name": "approve",
      "outputs": [],
      "stateMutability": "nonpayable",
      "type": "function"
    },
    {
      "inputs": [
        {
          "internalType": "uint256",
          "name": "amount",
          "type": "uint256"
        }
      ],
      "name": "buy",
      "outputs": [],
      "stateMutability": "payable",
      "type": "function",
      "payable": true
    },
    {
      "inputs": [
        {
          "internalType": "address",
          "name": "addr",
          "type": "address"
        },
        {
          "internalType": "uint256",
          "name": "amount",
          "type": "uint256"
        }
      ],
      "name": "setPhaseHistory",
      "outputs": [],
      "stateMutability": "nonpayable",
      "type": "function"
    },
    {
      "inputs": [],
      "name": "timeTravel",
      "outputs": [],
      "stateMutability": "nonpayable",
      "type": "function"
    },
    {
      "inputs": [],
      "name": "getTime",
      "outputs": [
        {
          "internalType": "uint256",
          "name": "",
          "type": "uint256"
        }
      ],
      "stateMutability": "view",
      "type": "function",
      "constant": true
    },
    {
      "inputs": [
        {
          "internalType": "string",
          "name": "_name",
          "type": "string"
        }
      ],
      "name": "sendRequest",
      "outputs": [],
      "stateMutability": "nonpayable",
      "type": "function"
    },
    {
      "inputs": [
        {
          "internalType": "address",
          "name": "sender",
          "type": "address"
        },
        {
          "internalType": "bool",
          "name": "isAccept",
          "type": "bool"
        }
      ],
      "name": "handleRequest",
      "outputs": [],
      "stateMutability": "nonpayable",
      "type": "function"
    },
    {
      "inputs": [],
      "name": "setPrivatePhase",
      "outputs": [],
      "stateMutability": "nonpayable",
      "type": "function"
    },
    {
      "inputs": [],
      "name": "setPublicPhase",
      "outputs": [],
      "stateMutability": "nonpayable",
      "type": "function"
    }
  ],
  "bytecode": "0x608060405262989680600455600c600560006101000a81548160ff021916908360ff1602179055506040518060400160405280600a81526020017f4c6f63616c546f6b656e00000000000000000000000000000000000000000000815250600690816200006d919062000bd8565b506040518060400160405280600381526020017f6c6f63000000000000000000000000000000000000000000000000000000000081525060079081620000b4919062000bd8565b50620186a06008556602aa1efb94e0006009556000600c60006101000a81548160ff02191690836002811115620000f057620000ef62000cbf565b5b02179055503480156200010257600080fd5b5060405162003a5d38038062003a5d833981810160405281019062000128919062000d58565b336000806101000a81548173ffffffffffffffffffffffffffffffffffffffff021916908373ffffffffffffffffffffffffffffffffffffffff16021790555060008054906101000a900473ffffffffffffffffffffffffffffffffffffffff16600360006101000a81548173ffffffffffffffffffffffffffffffffffffffff021916908373ffffffffffffffffffffffffffffffffffffffff16021790555084600160006101000a81548173ffffffffffffffffffffffffffffffffffffffff021916908373ffffffffffffffffffffffffffffffffffffffff16021790555083600260006101000a81548173ffffffffffffffffffffffffffffffffffffffff021916908373ffffffffffffffffffffffffffffffffffffffff16021790555042600a819055506000600b819055506200026d3360006200056960201b60201c565b620002808560016200056960201b60201c565b620002938460026200056960201b60201c565b620002a68360036200056960201b60201c565b620002b98260036200056960201b60201c565b620002cc8160036200056960201b60201c565b62989680601560008060009054906101000a900473ffffffffffffffffffffffffffffffffffffffff1673ffffffffffffffffffffffffffffffffffffffff1673ffffffffffffffffffffffffffffffffffffffff168152602001908152602001600020600082825462000341919062000e0f565b92505081905550620f4240601260008060009054906101000a900473ffffffffffffffffffffffffffffffffffffffff1673ffffffffffffffffffffffffffffffffffffffff1673ffffffffffffffffffffffffffffffffffffffff1681526020019081526020016000206000828254620003bd919062000e0f565b92505081905550622dc6c0601360008060009054906101000a900473ffffffffffffffffffffffffffffffffffffffff1673ffffffffffffffffffffffffffffffffffffffff1673ffffffffffffffffffffffffffffffffffffffff168152602001908152602001600020600082825462000439919062000e0f565b92505081905550625b8d80601460008060009054906101000a900473ffffffffffffffffffffffffffffffffffffffff1673ffffffffffffffffffffffffffffffffffffffff1673ffffffffffffffffffffffffffffffffffffffff1681526020019081526020016000206000828254620004b5919062000e0f565b92505081905550620004f260008054906101000a900473ffffffffffffffffffffffffffffffffffffffff1684620493e06200063a60201b60201c565b6200052860008054906101000a900473ffffffffffffffffffffffffffffffffffffffff168362061a806200063a60201b60201c565b6200055e60008054906101000a900473ffffffffffffffffffffffffffffffffffffffff168262030d406200063a60201b60201c565b505050505062000f08565b80600d60008473ffffffffffffffffffffffffffffffffffffffff1673ffffffffffffffffffffffffffffffffffffffff16815260200190815260200160002060006101000a81548160ff02191690836003811115620005ce57620005cd62000cbf565b5b0217905550600e829080600181540180825580915050600190039060005260206000200160009091909190916101000a81548173ffffffffffffffffffffffffffffffffffffffff021916908373ffffffffffffffffffffffffffffffffffffffff1602179055505050565b828180601560008473ffffffffffffffffffffffffffffffffffffffff1673ffffffffffffffffffffffffffffffffffffffff168152602001908152602001600020541015620006c1576040517f08c379a0000000000000000000000000000000000000000000000000000000008152600401620006b89062000eab565b60405180910390fd5b82601560008773ffffffffffffffffffffffffffffffffffffffff1673ffffffffffffffffffffffffffffffffffffffff168152602001908152602001600020600082825462000712919062000ecd565b9250508190555082601560008673ffffffffffffffffffffffffffffffffffffffff1673ffffffffffffffffffffffffffffffffffffffff16815260200190815260200160002060008282546200076a919062000e0f565b925050819055506200078384846200078a60201b60201c565b5050505050565b60006002811115620007a157620007a062000cbf565b5b600c60009054906101000a900460ff166002811115620007c657620007c562000cbf565b5b03620008255780601260008473ffffffffffffffffffffffffffffffffffffffff1673ffffffffffffffffffffffffffffffffffffffff16815260200190815260200160002060008282546200081d919062000e0f565b925050819055505b600160028111156200083c576200083b62000cbf565b5b600c60009054906101000a900460ff16600281111562000861576200086062000cbf565b5b03620008c05780601360008473ffffffffffffffffffffffffffffffffffffffff1673ffffffffffffffffffffffffffffffffffffffff1681526020019081526020016000206000828254620008b8919062000e0f565b925050819055505b600280811115620008d657620008d562000cbf565b5b600c60009054906101000a900460ff166002811115620008fb57620008fa62000cbf565b5b036200095a5780601460008473ffffffffffffffffffffffffffffffffffffffff1673ffffffffffffffffffffffffffffffffffffffff168152602001908152602001600020600082825462000952919062000e0f565b925050819055505b5050565b600081519050919050565b7f4e487b7100000000000000000000000000000000000000000000000000000000600052604160045260246000fd5b7f4e487b7100000000000000000000000000000000000000000000000000000000600052602260045260246000fd5b60006002820490506001821680620009e057607f821691505b602082108103620009f657620009f562000998565b5b50919050565b60008190508160005260206000209050919050565b60006020601f8301049050919050565b600082821b905092915050565b60006008830262000a607fffffffffffffffffffffffffffffffffffffffffffffffffffffffffffffffff8262000a21565b62000a6c868362000a21565b95508019841693508086168417925050509392505050565b6000819050919050565b6000819050919050565b600062000ab962000ab362000aad8462000a84565b62000a8e565b62000a84565b9050919050565b6000819050919050565b62000ad58362000a98565b62000aed62000ae48262000ac0565b84845462000a2e565b825550505050565b600090565b62000b0462000af5565b62000b1181848462000aca565b505050565b5b8181101562000b395762000b2d60008262000afa565b60018101905062000b17565b5050565b601f82111562000b885762000b5281620009fc565b62000b5d8462000a11565b8101602085101562000b6d578190505b62000b8562000b7c8562000a11565b83018262000b16565b50505b505050565b600082821c905092915050565b600062000bad6000198460080262000b8d565b1980831691505092915050565b600062000bc8838362000b9a565b9150826002028217905092915050565b62000be3826200095e565b67ffffffffffffffff81111562000bff5762000bfe62000969565b5b62000c0b8254620009c7565b62000c1882828562000b3d565b600060209050601f83116001811462000c50576000841562000c3b578287015190505b62000c47858262000bba565b86555062000cb7565b601f19841662000c6086620009fc565b60005b8281101562000c8a5784890151825560018201915060208501945060208101905062000c63565b8683101562000caa578489015162000ca6601f89168262000b9a565b8355505b6001600288020188555050505b505050505050565b7f4e487b7100000000000000000000000000000000000000000000000000000000600052602160045260246000fd5b600080fd5b600073ffffffffffffffffffffffffffffffffffffffff82169050919050565b600062000d208262000cf3565b9050919050565b62000d328162000d13565b811462000d3e57600080fd5b50565b60008151905062000d528162000d27565b92915050565b600080600080600060a0868803121562000d775762000d7662000cee565b5b600062000d878882890162000d41565b955050602062000d9a8882890162000d41565b945050604062000dad8882890162000d41565b935050606062000dc08882890162000d41565b925050608062000dd38882890162000d41565b9150509295509295909350565b7f4e487b7100000000000000000000000000000000000000000000000000000000600052601160045260246000fd5b600062000e1c8262000a84565b915062000e298362000a84565b925082820190508082111562000e445762000e4362000de0565b5b92915050565b600082825260208201905092915050565b7f636865636b2062616c616e636500000000000000000000000000000000000000600082015250565b600062000e93600d8362000e4a565b915062000ea08262000e5b565b602082019050919050565b6000602082019050818103600083015262000ec68162000e84565b9050919050565b600062000eda8262000a84565b915062000ee78362000a84565b925082820390508181111562000f025762000f0162000de0565b5b92915050565b612b458062000f186000396000f3fe60806040526004361061020f5760003560e01c80638b1014c411610118578063c3a920d4116100a0578063de3d27f81161006f578063de3d27f8146107b8578063e13b27f4146107cf578063e762850f146107e6578063efb8206014610823578063f713fcda1461084e5761020f565b8063c3a920d4146106f9578063d85c7a4e14610722578063d8929eb21461075f578063d96a094a1461079c5761020f565b80639b19251a116100e75780639b19251a146106165780639c3eead914610653578063a9059cbb1461067c578063b2adc1d9146106a5578063ba944845146106ce5761020f565b80638b1014c4146105585780638da5cb5b146105835780639424aa69146105ae57806395d89b41146105eb5761020f565b80634f3fb0c91161019b57806370a082311161016a57806370a082311461044d57806374adad1d1461048a57806374d5e100146104c757806377e050721461050457806378e979251461052d5761020f565b80634f3fb0c914610391578063557ed1ba146103bc5780635cb85cd2146103e757806368ed0ce5146104105761020f565b806323b872dd116101e257806323b872dd146102be5780632ddbd13a146102e7578063313ce56714610312578063365b98b21461033d5780634be867dd1461037a5761020f565b8063055ad42e1461021457806306fdde031461023f578063095ea7b31461026a57806313faede614610293575b600080fd5b34801561022057600080fd5b50610229610879565b6040516102369190611e0c565b60405180910390f35b34801561024b57600080fd5b5061025461088c565b6040516102619190611eb7565b60405180910390f35b34801561027657600080fd5b50610291600480360381019061028c9190611f81565b61091a565b005b34801561029f57600080fd5b506102a86109b1565b6040516102b59190611fd0565b60405180910390f35b3480156102ca57600080fd5b506102e560048036038101906102e09190611feb565b6109b7565b005b3480156102f357600080fd5b506102fc610ae0565b6040516103099190611fd0565b60405180910390f35b34801561031e57600080fd5b50610327610ae6565b604051610334919061205a565b60405180910390f35b34801561034957600080fd5b50610364600480360381019061035f9190612075565b610af9565b60405161037191906120b1565b60405180910390f35b34801561038657600080fd5b5061038f610b38565b005b34801561039d57600080fd5b506103a6610b52565b6040516103b39190611fd0565b60405180910390f35b3480156103c857600080fd5b506103d1610b58565b6040516103de9190611fd0565b60405180910390f35b3480156103f357600080fd5b5061040e60048036038101906104099190612075565b610b62565b005b34801561041c57600080fd5b50610437600480360381019061043291906120cc565b610b6c565b6040516104449190611fd0565b60405180910390f35b34801561045957600080fd5b50610474600480360381019061046f919061210c565b610b91565b6040516104819190611fd0565b60405180910390f35b34801561049657600080fd5b506104b160048036038101906104ac919061210c565b610ba9565b6040516104be9190611eb7565b60405180910390f35b3480156104d357600080fd5b506104ee60048036038101906104e9919061210c565b610c49565b6040516104fb9190612181565b60405180910390f35b34801561051057600080fd5b5061052b60048036038101906105269190611f81565b610c69565b005b34801561053957600080fd5b50610542610e22565b60405161054f9190611fd0565b60405180910390f35b34801561056457600080fd5b5061056d610e28565b60405161057a9190611fd0565b60405180910390f35b34801561058f57600080fd5b50610598610e2e565b6040516105a591906120b1565b60405180910390f35b3480156105ba57600080fd5b506105d560048036038101906105d0919061210c565b610e52565b6040516105e29190611fd0565b60405180910390f35b3480156105f757600080fd5b50610600610e6a565b60405161060d9190611eb7565b60405180910390f35b34801561062257600080fd5b5061063d6004803603810190610638919061210c565b610ef8565b60405161064a91906121b7565b60405180910390f35b34801561065f57600080fd5b5061067a600480360381019061067591906121f7565b610f18565b005b34801561068857600080fd5b506106a3600480360381019061069e9190611f81565b610fe6565b005b3480156106b157600080fd5b506106cc60048036038101906106c7919061236c565b61107b565b005b3480156106da57600080fd5b506106e361124c565b6040516106f091906120b1565b60405180910390f35b34801561070557600080fd5b50610720600480360381019061071b91906123e1565b611272565b005b34801561072e57600080fd5b506107496004803603810190610744919061210c565b6114c1565b6040516107569190611fd0565b60405180910390f35b34801561076b57600080fd5b5061078660048036038101906107819190612075565b6114d9565b60405161079391906120b1565b60405180910390f35b6107b660048036038101906107b19190612075565b611518565b005b3480156107c457600080fd5b506107cd61187a565b005b3480156107db57600080fd5b506107e46119a6565b005b3480156107f257600080fd5b5061080d6004803603810190610808919061210c565b611bf0565b60405161081a9190611fd0565b60405180910390f35b34801561082f57600080fd5b50610838611c08565b60405161084591906120b1565b60405180910390f35b34801561085a57600080fd5b50610863611c2e565b60405161087091906120b1565b60405180910390f35b600c60009054906101000a900460ff1681565b6006805461089990612450565b80601f01602080910402602001604051908101604052809291908181526020018280546108c590612450565b80156109125780601f106108e757610100808354040283529160200191610912565b820191906000526020600020905b8154815290600101906020018083116108f557829003601f168201915b505050505081565b80601660003373ffffffffffffffffffffffffffffffffffffffff1673ffffffffffffffffffffffffffffffffffffffff16815260200190815260200160002060008473ffffffffffffffffffffffffffffffffffffffff1673ffffffffffffffffffffffffffffffffffffffff16815260200190815260200160002060008282546109a691906124b0565b925050819055505050565b60095481565b828180601560008473ffffffffffffffffffffffffffffffffffffffff1673ffffffffffffffffffffffffffffffffffffffff168152602001908152602001600020541015610a3b576040517f08c379a0000000000000000000000000000000000000000000000000000000008152600401610a3290612530565b60405180910390fd5b82601660008773ffffffffffffffffffffffffffffffffffffffff1673ffffffffffffffffffffffffffffffffffffffff16815260200190815260200160002060008673ffffffffffffffffffffffffffffffffffffffff1673ffffffffffffffffffffffffffffffffffffffff1681526020019081526020016000206000828254610ac79190612550565b92505081905550610ad9858585611c54565b5050505050565b60045481565b600560009054906101000a900460ff1681565b600e8181548110610b0957600080fd5b906000526020600020016000915054906101000a900473ffffffffffffffffffffffffffffffffffffffff1681565b600b6000815480929190610b4b90612584565b9190505550565b60085481565b6000600b54905090565b8060098190555050565b6016602052816000526040600020602052806000526040600020600091509150505481565b60156020528060005260406000206000915090505481565b60106020528060005260406000206000915090508054610bc890612450565b80601f0160208091040260200160405190810160405280929190818152602001828054610bf490612450565b8015610c415780601f10610c1657610100808354040283529160200191610c41565b820191906000526020600020905b815481529060010190602001808311610c2457829003601f168201915b505050505081565b600d6020528060005260406000206000915054906101000a900460ff1681565b60006002811115610c7d57610c7c611d95565b5b600c60009054906101000a900460ff166002811115610c9f57610c9e611d95565b5b03610cfb5780601260008473ffffffffffffffffffffffffffffffffffffffff1673ffffffffffffffffffffffffffffffffffffffff1681526020019081526020016000206000828254610cf391906124b0565b925050819055505b60016002811115610d0f57610d0e611d95565b5b600c60009054906101000a900460ff166002811115610d3157610d30611d95565b5b03610d8d5780601360008473ffffffffffffffffffffffffffffffffffffffff1673ffffffffffffffffffffffffffffffffffffffff1681526020019081526020016000206000828254610d8591906124b0565b925050819055505b600280811115610da057610d9f611d95565b5b600c60009054906101000a900460ff166002811115610dc257610dc1611d95565b5b03610e1e5780601460008473ffffffffffffffffffffffffffffffffffffffff1673ffffffffffffffffffffffffffffffffffffffff1681526020019081526020016000206000828254610e1691906124b0565b925050819055505b5050565b600a5481565b600b5481565b60008054906101000a900473ffffffffffffffffffffffffffffffffffffffff1681565b60146020528060005260406000206000915090505481565b60078054610e7790612450565b80601f0160208091040260200160405190810160405280929190818152602001828054610ea390612450565b8015610ef05780601f10610ec557610100808354040283529160200191610ef0565b820191906000526020600020905b815481529060010190602001808311610ed357829003601f168201915b505050505081565b600f6020528060005260406000206000915054906101000a900460ff1681565b80600d60008473ffffffffffffffffffffffffffffffffffffffff1673ffffffffffffffffffffffffffffffffffffffff16815260200190815260200160002060006101000a81548160ff02191690836003811115610f7a57610f79611d95565b5b0217905550600e829080600181540180825580915050600190039060005260206000200160009091909190916101000a81548173ffffffffffffffffffffffffffffffffffffffff021916908373ffffffffffffffffffffffffffffffffffffffff1602179055505050565b338180601560008473ffffffffffffffffffffffffffffffffffffffff1673ffffffffffffffffffffffffffffffffffffffff16815260200190815260200160002054101561106a576040517f08c379a000000000000000000000000000000000000000000000000000000000815260040161106190612530565b60405180910390fd5b611075338585611c54565b50505050565b6000600281111561108f5761108e611d95565b5b600c60009054906101000a900460ff1660028111156110b1576110b0611d95565b5b146110f1576040517f08c379a00000000000000000000000000000000000000000000000000000000081526004016110e89061263e565b60405180910390fd5b80601060003373ffffffffffffffffffffffffffffffffffffffff1673ffffffffffffffffffffffffffffffffffffffff168152602001908152602001600020908161113d919061280a565b506000805b6011805490508160ff1610156111de573373ffffffffffffffffffffffffffffffffffffffff1660118260ff16815481106111805761117f6128dc565b5b9060005260206000200160009054906101000a900473ffffffffffffffffffffffffffffffffffffffff1673ffffffffffffffffffffffffffffffffffffffff16036111cb57600191505b80806111d69061290b565b915050611142565b5080611248576011339080600181540180825580915050600190039060005260206000200160009091909190916101000a81548173ffffffffffffffffffffffffffffffffffffffff021916908373ffffffffffffffffffffffffffffffffffffffff1602179055505b5050565b600160009054906101000a900473ffffffffffffffffffffffffffffffffffffffff1681565b80600f60008473ffffffffffffffffffffffffffffffffffffffff1673ffffffffffffffffffffffffffffffffffffffff16815260200190815260200160002060006101000a81548160ff02191690831515021790555060405180602001604052806000815250601060008473ffffffffffffffffffffffffffffffffffffffff1673ffffffffffffffffffffffffffffffffffffffff1681526020019081526020016000209081611324919061280a565b5060005b6011805490508160ff1610156114bb5760118160ff168154811061134f5761134e6128dc565b5b9060005260206000200160009054906101000a900473ffffffffffffffffffffffffffffffffffffffff1673ffffffffffffffffffffffffffffffffffffffff168373ffffffffffffffffffffffffffffffffffffffff16036114a857601160016011805490506113c09190612550565b815481106113d1576113d06128dc565b5b9060005260206000200160009054906101000a900473ffffffffffffffffffffffffffffffffffffffff1660118260ff1681548110611413576114126128dc565b5b9060005260206000200160006101000a81548173ffffffffffffffffffffffffffffffffffffffff021916908373ffffffffffffffffffffffffffffffffffffffff160217905550601180548061146d5761146c612934565b5b6001900381819060005260206000200160006101000a81549073ffffffffffffffffffffffffffffffffffffffff02191690559055506114bd565b80806114b39061290b565b915050611328565b505b5050565b60136020528060005260406000206000915090505481565b601181815481106114e957600080fd5b906000526020600020016000915054906101000a900473ffffffffffffffffffffffffffffffffffffffff1681565b6000600281111561152c5761152b611d95565b5b600c60009054906101000a900460ff16600281111561154e5761154d611d95565b5b0361158e576040517f08c379a0000000000000000000000000000000000000000000000000000000008152600401611585906129af565b60405180910390fd5b600160028111156115a2576115a1611d95565b5b600c60009054906101000a900460ff1660028111156115c4576115c3611d95565b5b0361165657600f60003373ffffffffffffffffffffffffffffffffffffffff1673ffffffffffffffffffffffffffffffffffffffff16815260200190815260200160002060009054906101000a900460ff16611655576040517f08c379a000000000000000000000000000000000000000000000000000000000815260040161164c90612a1b565b60405180910390fd5b5b600360009054906101000a900473ffffffffffffffffffffffffffffffffffffffff168180601560008473ffffffffffffffffffffffffffffffffffffffff1673ffffffffffffffffffffffffffffffffffffffff1681526020019081526020016000205410156116fc576040517f08c379a00000000000000000000000000000000000000000000000000000000081526004016116f390612530565b60405180910390fd5b82600854811115611742576040517f08c379a000000000000000000000000000000000000000000000000000000000815260040161173990612aad565b60405180910390fd5b6000600954856117529190612acd565b90506000600360009054906101000a900473ffffffffffffffffffffffffffffffffffffffff1690508073ffffffffffffffffffffffffffffffffffffffff166108fc839081150290604051600060405180830381858888f193505050501580156117c1573d6000803e3d6000fd5b5034821015611845576000600360009054906101000a900473ffffffffffffffffffffffffffffffffffffffff1690508073ffffffffffffffffffffffffffffffffffffffff166108fc84346118179190612550565b9081150290604051600060405180830381858888f19350505050158015611842573d6000803e3d6000fd5b50505b611872600360009054906101000a900473ffffffffffffffffffffffffffffffffffffffff163388611c54565b505050505050565b6000600281111561188e5761188d611d95565b5b600c60009054906101000a900460ff1660028111156118b0576118af611d95565b5b036119a4576000622dc6c09050600160009054906101000a900473ffffffffffffffffffffffffffffffffffffffff16600360006101000a81548173ffffffffffffffffffffffffffffffffffffffff021916908373ffffffffffffffffffffffffffffffffffffffff1602179055506001600c60006101000a81548160ff0219169083600281111561194657611945611d95565b5b021790555061199860008054906101000a900473ffffffffffffffffffffffffffffffffffffffff16600160009054906101000a900473ffffffffffffffffffffffffffffffffffffffff1683611c54565b620186a0600881905550505b565b600160028111156119ba576119b9611d95565b5b600c60009054906101000a900460ff1660028111156119dc576119db611d95565b5b03611bee57600260009054906101000a900473ffffffffffffffffffffffffffffffffffffffff16600360006101000a81548173ffffffffffffffffffffffffffffffffffffffff021916908373ffffffffffffffffffffffffffffffffffffffff1602179055506000625b8d809050611afa600160009054906101000a900473ffffffffffffffffffffffffffffffffffffffff1660008054906101000a900473ffffffffffffffffffffffffffffffffffffffff1660156000600160009054906101000a900473ffffffffffffffffffffffffffffffffffffffff1673ffffffffffffffffffffffffffffffffffffffff1673ffffffffffffffffffffffffffffffffffffffff16815260200190815260200160002054611c54565b600260009054906101000a900473ffffffffffffffffffffffffffffffffffffffff16600360006101000a81548173ffffffffffffffffffffffffffffffffffffffff021916908373ffffffffffffffffffffffffffffffffffffffff1602179055506002600c60006101000a81548160ff02191690836002811115611b8357611b82611d95565b5b0217905550611bd560008054906101000a900473ffffffffffffffffffffffffffffffffffffffff16600260009054906101000a900473ffffffffffffffffffffffffffffffffffffffff1683611c54565b66038d7ea4c68000600981905550611388600881905550505b565b60126020528060005260406000206000915090505481565b600260009054906101000a900473ffffffffffffffffffffffffffffffffffffffff1681565b600360009054906101000a900473ffffffffffffffffffffffffffffffffffffffff1681565b828180601560008473ffffffffffffffffffffffffffffffffffffffff1673ffffffffffffffffffffffffffffffffffffffff168152602001908152602001600020541015611cd8576040517f08c379a0000000000000000000000000000000000000000000000000000000008152600401611ccf90612530565b60405180910390fd5b82601560008773ffffffffffffffffffffffffffffffffffffffff1673ffffffffffffffffffffffffffffffffffffffff1681526020019081526020016000206000828254611d279190612550565b9250508190555082601560008673ffffffffffffffffffffffffffffffffffffffff1673ffffffffffffffffffffffffffffffffffffffff1681526020019081526020016000206000828254611d7d91906124b0565b92505081905550611d8e8484610c69565b5050505050565b7f4e487b7100000000000000000000000000000000000000000000000000000000600052602160045260246000fd5b60038110611dd557611dd4611d95565b5b50565b6000819050611de682611dc4565b919050565b6000611df682611dd8565b9050919050565b611e0681611deb565b82525050565b6000602082019050611e216000830184611dfd565b92915050565b600081519050919050565b600082825260208201905092915050565b60005b83811015611e61578082015181840152602081019050611e46565b60008484015250505050565b6000601f19601f8301169050919050565b6000611e8982611e27565b611e938185611e32565b9350611ea3818560208601611e43565b611eac81611e6d565b840191505092915050565b60006020820190508181036000830152611ed18184611e7e565b905092915050565b6000604051905090565b600080fd5b600080fd5b600073ffffffffffffffffffffffffffffffffffffffff82169050919050565b6000611f1882611eed565b9050919050565b611f2881611f0d565b8114611f3357600080fd5b50565b600081359050611f4581611f1f565b92915050565b6000819050919050565b611f5e81611f4b565b8114611f6957600080fd5b50565b600081359050611f7b81611f55565b92915050565b60008060408385031215611f9857611f97611ee3565b5b6000611fa685828601611f36565b9250506020611fb785828601611f6c565b9150509250929050565b611fca81611f4b565b82525050565b6000602082019050611fe56000830184611fc1565b92915050565b60008060006060848603121561200457612003611ee3565b5b600061201286828701611f36565b935050602061202386828701611f36565b925050604061203486828701611f6c565b9150509250925092565b600060ff82169050919050565b6120548161203e565b82525050565b600060208201905061206f600083018461204b565b92915050565b60006020828403121561208b5761208a611ee3565b5b600061209984828501611f6c565b91505092915050565b6120ab81611f0d565b82525050565b60006020820190506120c660008301846120a2565b92915050565b600080604083850312156120e3576120e2611ee3565b5b60006120f185828601611f36565b925050602061210285828601611f36565b9150509250929050565b60006020828403121561212257612121611ee3565b5b600061213084828501611f36565b91505092915050565b6004811061214a57612149611d95565b5b50565b600081905061215b82612139565b919050565b600061216b8261214d565b9050919050565b61217b81612160565b82525050565b60006020820190506121966000830184612172565b92915050565b60008115159050919050565b6121b18161219c565b82525050565b60006020820190506121cc60008301846121a8565b92915050565b600481106121df57600080fd5b50565b6000813590506121f1816121d2565b92915050565b6000806040838503121561220e5761220d611ee3565b5b600061221c85828601611f36565b925050602061222d858286016121e2565b9150509250929050565b600080fd5b600080fd5b7f4e487b7100000000000000000000000000000000000000000000000000000000600052604160045260246000fd5b61227982611e6d565b810181811067ffffffffffffffff8211171561229857612297612241565b5b80604052505050565b60006122ab611ed9565b90506122b78282612270565b919050565b600067ffffffffffffffff8211156122d7576122d6612241565b5b6122e082611e6d565b9050602081019050919050565b82818337600083830152505050565b600061230f61230a846122bc565b6122a1565b90508281526020810184848401111561232b5761232a61223c565b5b6123368482856122ed565b509392505050565b600082601f83011261235357612352612237565b5b81356123638482602086016122fc565b91505092915050565b60006020828403121561238257612381611ee3565b5b600082013567ffffffffffffffff8111156123a05761239f611ee8565b5b6123ac8482850161233e565b91505092915050565b6123be8161219c565b81146123c957600080fd5b50565b6000813590506123db816123b5565b92915050565b600080604083850312156123f8576123f7611ee3565b5b600061240685828601611f36565b9250506020612417858286016123cc565b9150509250929050565b7f4e487b7100000000000000000000000000000000000000000000000000000000600052602260045260246000fd5b6000600282049050600182168061246857607f821691505b60208210810361247b5761247a612421565b5b50919050565b7f4e487b7100000000000000000000000000000000000000000000000000000000600052601160045260246000fd5b60006124bb82611f4b565b91506124c683611f4b565b92508282019050808211156124de576124dd612481565b5b92915050565b7f636865636b2062616c616e636500000000000000000000000000000000000000600082015250565b600061251a600d83611e32565b9150612525826124e4565b602082019050919050565b600060208201905081810360008301526125498161250d565b9050919050565b600061255b82611f4b565b915061256683611f4b565b925082820390508181111561257e5761257d612481565b5b92915050565b600061258f82611f4b565b91507fffffffffffffffffffffffffffffffffffffffffffffffffffffffffffffffff82036125c1576125c0612481565b5b600182019050919050565b7f796f752063616e2073656e64207265717565737473206f6e6c7920696e20736560008201527f6564207068617365000000000000000000000000000000000000000000000000602082015250565b6000612628602883611e32565b9150612633826125cc565b604082019050919050565b600060208201905081810360008301526126578161261b565b9050919050565b60008190508160005260206000209050919050565b60006020601f8301049050919050565b600082821b905092915050565b6000600883026126c07fffffffffffffffffffffffffffffffffffffffffffffffffffffffffffffffff82612683565b6126ca8683612683565b95508019841693508086168417925050509392505050565b6000819050919050565b60006127076127026126fd84611f4b565b6126e2565b611f4b565b9050919050565b6000819050919050565b612721836126ec565b61273561272d8261270e565b848454612690565b825550505050565b600090565b61274a61273d565b612755818484612718565b505050565b5b818110156127795761276e600082612742565b60018101905061275b565b5050565b601f8211156127be5761278f8161265e565b61279884612673565b810160208510156127a7578190505b6127bb6127b385612673565b83018261275a565b50505b505050565b600082821c905092915050565b60006127e1600019846008026127c3565b1980831691505092915050565b60006127fa83836127d0565b9150826002028217905092915050565b61281382611e27565b67ffffffffffffffff81111561282c5761282b612241565b5b6128368254612450565b61284182828561277d565b600060209050601f8311600181146128745760008415612862578287015190505b61286c85826127ee565b8655506128d4565b601f1984166128828661265e565b60005b828110156128aa57848901518255600182019150602085019450602081019050612885565b868310156128c757848901516128c3601f8916826127d0565b8355505b6001600288020188555050505b505050505050565b7f4e487b7100000000000000000000000000000000000000000000000000000000600052603260045260246000fd5b60006129168261203e565b915060ff820361292957612928612481565b5b600182019050919050565b7f4e487b7100000000000000000000000000000000000000000000000000000000600052603160045260246000fd5b7f507269766174652073616c65206e6f7420737461727465640000000000000000600082015250565b6000612999601883611e32565b91506129a482612963565b602082019050919050565b600060208201905081810360008301526129c88161298c565b9050919050565b7f467265652073616c65206e6f7420737461727465640000000000000000000000600082015250565b6000612a05601583611e32565b9150612a10826129cf565b602082019050919050565b60006020820190508181036000830152612a34816129f8565b9050919050565b7f76616c756520626967676572207468616e2063757272656e7450686173654c6960008201527f6d69740000000000000000000000000000000000000000000000000000000000602082015250565b6000612a97602383611e32565b9150612aa282612a3b565b604082019050919050565b60006020820190508181036000830152612ac681612a8a565b9050919050565b6000612ad882611f4b565b9150612ae383611f4b565b9250828202612af181611f4b565b91508282048414831517612b0857612b07612481565b5b509291505056fea2646970667358221220cd2ad1b4ccb347d8184768d33244a0adbfb73897342317bc78d57e487a8611e064736f6c63430008120033",
  "immutableReferences": {},
  "source": "// SPDX-License-Identifier: MIT\n\npragma solidity ^0.8.0;\n\ncontract LocToken {\n  struct Balance {\n    uint publicTokens;\n    uint privateTokens;\n  }\n  enum Phase {seedPhase, privatePhase, publicPhase}\n  enum Role {owner, privateProvider, publicProvider, user}\n\n  // \n  address public owner;\n  address public privateProvider;\n  address public publicProvider;\n  address public currentTokenOwner;\n\n  //   \n  uint public total = 10000000;\n  uint8 public decimals = 12;\n  string public name = \"LocalToken\";\n  string public symbol = \"loc\";\n  uint public phaseTokenLimit = 100000;\n  uint public cost = 1 ether * 75 / 100000;\n\n  //  \n  uint public startTime;\n  uint public timeDiff;\n  Phase public currentPhase = Phase.seedPhase;\n\n  // \n  mapping (address => Role) public userRoles;\n  address[] public users;\n\n  // Whitelist\n  mapping (address => bool) public whitelist;\n  mapping (address => string) public requests;\n  address[] public requestAddresses;\n\n  // Tokens\n  mapping (address => uint) public seedTokens;\n  mapping (address => uint) public privateTokens;\n  mapping (address => uint) public publicTokens;\n  mapping (address => uint) public balanceOf;\n\n  //  \n  mapping (address => mapping (address => uint)) public allows;\n\n  constructor(address _private, address _public, address _investor1, address _investor2, address _friend){\n    owner = msg.sender;\n    currentTokenOwner = owner;\n    privateProvider = _private;\n    publicProvider = _public;\n    startTime = block.timestamp;\n    timeDiff = 0;\n    addUser(msg.sender, Role.owner);\n    addUser(_private, Role.privateProvider);\n    addUser(_public, Role.publicProvider);\n    addUser(_investor1, Role.user);\n    addUser(_investor2, Role.user);\n    addUser(_friend, Role.user);\n    balanceOf[owner] += 10000000;\n    seedTokens[owner] += 1000000;\n    privateTokens[owner] += 3000000;\n    publicTokens[owner] += 6000000;\n    _transferFrom(owner, _investor1, 300000);\n    _transferFrom(owner, _investor2, 400000);\n    _transferFrom(owner, _friend, 200000);\n  }\n\n  function addUser(address addr, Role role) public {\n    userRoles[addr] = role;\n    users.push(addr);\n  }\n\n  function changeCost(uint amount) public {\n    cost = amount;\n  }\n\n  //@region Transfers\n\n  function _transferFrom(address from, address to, uint amount) private enoughTokens(from, amount) {\n    balanceOf[from] -= amount;\n    balanceOf[to] += amount;\n    setPhaseHistory(to, amount);\n  }\n\n  function transferFrom(address from, address to, uint amount) public enoughTokens(from, amount) {\n    allows[from][to] -= amount;\n    _transferFrom(from, to, amount);\n  }\n\n  function transfer(address to, uint amount) public enoughTokens(msg.sender, amount) {\n    _transferFrom(msg.sender, to, amount);\n  }\n\n  //@endregion\n\n  function approve(address to, uint amount) public {\n    allows[msg.sender][to] += amount;\n  }\n\n  function buy(uint amount) public payable checkWhitelist() enoughTokens(currentTokenOwner, amount) checkPhaseLimit(amount) {\n    uint sum = amount * cost;\n    address payable payableOwner = payable(currentTokenOwner);\n    payableOwner.transfer(sum);\n    if (sum < msg.value){\n      address payable sender = payable(currentTokenOwner);\n      payable(sender).transfer(msg.value-sum);\n    }\n    _transferFrom(currentTokenOwner,msg.sender,amount);\n  }\n\n  //@region utils\n\n  function setPhaseHistory(address addr, uint amount) public {\n    if (currentPhase == Phase.seedPhase) {\n      seedTokens[addr] += amount;\n    }\n    if (currentPhase == Phase.privatePhase) {\n      privateTokens[addr] += amount;\n    }\n    if (currentPhase == Phase.publicPhase) {\n      publicTokens[addr] += amount;\n    }\n  }\n\n  function timeTravel() public {\n    timeDiff++;\n  }\n\n  function getTime() public view returns(uint){\n    //        return (block.timestamp - startTime)/60 + timeDiff;\n    return timeDiff;\n  }\n\n  function sendRequest(string memory _name) public {\n    require(currentPhase == Phase.seedPhase,\"you can send requests only in seed phase\");\n    requests[msg.sender] = _name;\n    bool _inArray = false;\n    for (uint8 i = 0; i < requestAddresses.length; i++) {\n      if (requestAddresses[i] == msg.sender) {\n        _inArray = true;\n      }\n    }\n    if (!_inArray) {\n    requestAddresses.push(msg.sender);\n    }\n  }\n\n  function handleRequest(address sender,bool isAccept) public {\n    whitelist[sender] = isAccept;\n    requests[sender] = \"\";\n    for (uint8 i = 0; i < requestAddresses.length; i++){\n      if (sender == requestAddresses[i]){\n        requestAddresses[i] = requestAddresses[requestAddresses.length - 1];\n        requestAddresses.pop();\n        return;\n      }\n    }\n  }\n\n  function setPrivatePhase() public {\n    if (currentPhase == Phase.seedPhase) {\n      uint privatePhaseAmount = 3000000;\n      currentTokenOwner = privateProvider;\n      currentPhase = Phase.privatePhase;\n      _transferFrom (owner,privateProvider,privatePhaseAmount);\n      phaseTokenLimit = 100000;\n    }\n  }\n\n  function setPublicPhase() public {\n    if (currentPhase == Phase.privatePhase){\n      currentTokenOwner = publicProvider;\n      uint publicTokenAmount = 6000000;\n      _transferFrom(privateProvider,owner,balanceOf[privateProvider]);\n      currentTokenOwner = publicProvider;\n      currentPhase = Phase.publicPhase;\n      _transferFrom(owner,publicProvider,publicTokenAmount);\n      cost = 1 ether / 1000;\n      phaseTokenLimit = 5000;\n    }\n  }\n\n  //@endregion\n\n  //@region modifiers\n\n  modifier enoughTokens(address from, uint amount) {\n    require(balanceOf[from] >= amount, \"check balance\");\n    _;\n  }\n\n  modifier checkWhitelist() {\n    require(currentPhase != Phase.seedPhase, \"Private sale not started\");\n    if (currentPhase == Phase.privatePhase) {\n      require(whitelist[msg.sender], \"Free sale not started\");\n    }\n    _;\n  }\n\n  modifier checkPhaseLimit(uint amount) {\n    require(amount <= phaseTokenLimit, \"value bigger than currentPhaseLimit\");\n    _;\n  }\n\n  //@endregion\n}\n",
  "sourcePath": "/Users/macbookpro/WebstormProjects/wsrbackend/contracts/LocToken.sol",
  "compiler": {
    "name": "solc",
    "version": "0.8.18+commit.87f61d96.Emscripten.clang"
  },
  "schemaVersion": "3.4.12",
  "updatedAt": "2023-03-03T05:42:44.081Z",
  "networkType": "ethereum",
  "devdoc": {
    "kind": "dev",
    "methods": {},
    "version": 1
  },
  "userdoc": {
    "kind": "user",
    "methods": {},
    "version": 1
  }
}